{
  "contractName": "BeatBattle",
  "abi": [
    {
      "inputs": [],
      "name": "battleCount",
      "outputs": [
        {
          "internalType": "uint256",
          "name": "",
          "type": "uint256"
        }
      ],
      "stateMutability": "view",
      "type": "function",
      "constant": true
    },
    {
      "inputs": [
        {
          "internalType": "uint256",
          "name": "",
          "type": "uint256"
        }
      ],
      "name": "battles",
      "outputs": [
        {
          "internalType": "uint256",
          "name": "id",
          "type": "uint256"
        },
        {
          "internalType": "uint256",
          "name": "startTime",
          "type": "uint256"
        },
        {
          "internalType": "uint256",
          "name": "endTime",
          "type": "uint256"
        },
        {
          "internalType": "string",
          "name": "metadataUri",
          "type": "string"
        },
        {
          "internalType": "uint256",
          "name": "reward",
          "type": "uint256"
        },
        {
          "internalType": "bool",
          "name": "distributedReward",
          "type": "bool"
        }
      ],
      "stateMutability": "view",
      "type": "function",
      "constant": true
    },
    {
      "inputs": [
        {
          "internalType": "uint256",
          "name": "_battleId",
          "type": "uint256"
        }
      ],
      "name": "getBattle",
      "outputs": [
        {
          "internalType": "uint256",
          "name": "",
          "type": "uint256"
        },
        {
          "internalType": "uint256",
          "name": "",
          "type": "uint256"
        },
        {
          "internalType": "uint256",
          "name": "",
          "type": "uint256"
        },
        {
          "internalType": "string",
          "name": "",
          "type": "string"
        },
        {
          "internalType": "uint256[]",
          "name": "",
          "type": "uint256[]"
        },
        {
          "internalType": "uint256",
          "name": "",
          "type": "uint256"
        }
      ],
      "stateMutability": "view",
      "type": "function",
      "constant": true
    },
    {
      "inputs": [],
      "name": "getBattleCount",
      "outputs": [
        {
          "internalType": "uint256",
          "name": "",
          "type": "uint256"
        }
      ],
      "stateMutability": "view",
      "type": "function",
      "constant": true
    },
    {
      "inputs": [
        {
          "internalType": "uint256",
          "name": "_battleId",
          "type": "uint256"
        },
        {
          "internalType": "uint256",
          "name": "_beatId",
          "type": "uint256"
        }
      ],
      "name": "getVotingBeatInfo",
      "outputs": [
        {
          "internalType": "uint256",
          "name": "count",
          "type": "uint256"
        },
        {
          "internalType": "address[]",
          "name": "voterAddresses",
          "type": "address[]"
        }
      ],
      "stateMutability": "view",
      "type": "function",
      "constant": true
    },
    {
      "inputs": [
        {
          "internalType": "uint256",
          "name": "_startTime",
          "type": "uint256"
        },
        {
          "internalType": "uint256",
          "name": "_endTime",
          "type": "uint256"
        },
        {
          "internalType": "string",
          "name": "_metadataUri",
          "type": "string"
        }
      ],
      "name": "createBattle",
      "outputs": [],
      "stateMutability": "payable",
      "type": "function",
      "payable": true
    },
    {
      "inputs": [
        {
          "internalType": "uint256",
          "name": "_battleId",
          "type": "uint256"
        },
        {
          "internalType": "uint256",
          "name": "_beatId",
          "type": "uint256"
        }
      ],
      "name": "vote",
      "outputs": [],
      "stateMutability": "nonpayable",
      "type": "function"
    },
    {
      "inputs": [
        {
          "internalType": "uint256",
          "name": "_battleId",
          "type": "uint256"
        },
        {
          "internalType": "uint256",
          "name": "_beatId",
          "type": "uint256"
        }
      ],
      "name": "join",
      "outputs": [],
      "stateMutability": "nonpayable",
      "type": "function"
    },
    {
      "inputs": [
        {
          "internalType": "uint256",
          "name": "_battleId",
          "type": "uint256"
        }
      ],
      "name": "claimReward",
      "outputs": [],
      "stateMutability": "payable",
      "type": "function",
      "payable": true
    },
    {
      "inputs": [
        {
          "internalType": "uint256",
          "name": "_battleId",
          "type": "uint256"
        }
      ],
      "name": "getWinningBeat",
      "outputs": [
        {
          "internalType": "uint256",
          "name": "",
          "type": "uint256"
        }
      ],
      "stateMutability": "view",
      "type": "function",
      "constant": true
    }
  ],
  "bytecode": "0x608060405234801561001057600080fd5b50611679806100206000396000f3fe6080604052600436106100915760003560e01c806379e66b461161005957806379e66b46146101b1578063ae169a50146101da578063b384abef146101f6578063e00b63631461021f578063f470d5ec1461024a57610091565b8063090e1973146100965780634125a2d2146100d3578063606d2e96146101115780636dd0ce7a1461015357806377dc2fb814610195575b600080fd5b3480156100a257600080fd5b506100bd60048036038101906100b89190610dcc565b610275565b6040516100ca9190611115565b60405180910390f35b3480156100df57600080fd5b506100fa60048036038101906100f59190610df9565b610336565b604051610108929190611130565b60405180910390f35b34801561011d57600080fd5b5061013860048036038101906101339190610dcc565b61041f565b60405161014a969594939291906111cf565b60405180910390f35b34801561015f57600080fd5b5061017a60048036038101906101759190610dcc565b6104f0565b60405161018c96959493929190611160565b60405180910390f35b6101af60048036038101906101aa9190610e39565b610675565b005b3480156101bd57600080fd5b506101d860048036038101906101d39190610df9565b61072d565b005b6101f460048036038101906101ef9190610dcc565b6108c1565b005b34801561020257600080fd5b5061021d60048036038101906102189190610df9565b610a91565b005b34801561022b57600080fd5b50610234610c95565b6040516102419190611115565b60405180910390f35b34801561025657600080fd5b5061025f610c9b565b60405161026c9190611115565b60405180910390f35b600080600090506000805b600160008681526020019081526020016000206006018054905081101561032b5760006001600087815260200190815260200160002060060182815481106102cb576102ca611505565b5b90600052602060002001549050600060016000888152602001908152602001600020600701600083815260200190815260200160002060010154905083811115610316578093508194505b505080806103239061145e565b915050610280565b508192505050919050565b6000606060016000858152602001908152602001600020600701600084815260200190815260200160002060010154915060016000858152602001908152602001600020600701600084815260200190815260200160002060020180548060200260200160405190810160405280929190818152602001828054801561041157602002820191906000526020600020905b8160009054906101000a900473ffffffffffffffffffffffffffffffffffffffff1673ffffffffffffffffffffffffffffffffffffffff16815260200190600101908083116103c7575b505050505090509250929050565b6001602052806000526040600020600091509050806000015490806001015490806002015490806003018054610454906113fb565b80601f0160208091040260200160405190810160405280929190818152602001828054610480906113fb565b80156104cd5780601f106104a2576101008083540402835291602001916104cd565b820191906000526020600020905b8154815290600101906020018083116104b057829003601f168201915b5050505050908060040154908060050160009054906101000a900460ff16905086565b6000806000606080600060016000888152602001908152602001600020600001546001600089815260200190815260200160002060010154600160008a815260200190815260200160002060020154600160008b8152602001908152602001600020600301600160008c8152602001908152602001600020600601600160008d81526020019081526020016000206004015482805461058e906113fb565b80601f01602080910402602001604051908101604052809291908181526020018280546105ba906113fb565b80156106075780601f106105dc57610100808354040283529160200191610607565b820191906000526020600020905b8154815290600101906020018083116105ea57829003601f168201915b505050505092508180548060200260200160405190810160405280929190818152602001828054801561065957602002820191906000526020600020905b815481526020019060010190808311610645575b5050505050915095509550955095509550955091939550919395565b6001600054610684919061131b565b6000819055506000546001600080548152602001908152602001600020600001819055508260016000805481526020019081526020016000206001018190555081600160008054815260200190815260200160002060020181905550806001600080548152602001908152602001600020600301908051906020019061070b929190610ca4565b5034600160008054815260200190815260200160002060040181905550505050565b6000805b60016000858152602001908152602001600020600601805490508110156107a4578260016000868152602001908152602001600020600601828154811061077b5761077a611505565b5b9060005260206000200154141561079157600191505b808061079c9061145e565b915050610731565b5080156107e6576040517f08c379a00000000000000000000000000000000000000000000000000000000081526004016107dd90611095565b60405180910390fd5b600160008481526020019081526020016000206006018290806001815401808255809150506001900390600052602060002001600090919091909150556000600160008581526020019081526020016000206007016000848152602001908152602001600020600101819055503360016000858152602001908152602001600020600701600084815260200190815260200160002060000160006101000a81548173ffffffffffffffffffffffffffffffffffffffff021916908373ffffffffffffffffffffffffffffffffffffffff160217905550505050565b60006108cc82610275565b90506000811180156108de5750600082115b801561095f57503373ffffffffffffffffffffffffffffffffffffffff1660016000848152602001908152602001600020600701600083815260200190815260200160002060000160009054906101000a900473ffffffffffffffffffffffffffffffffffffffff1673ffffffffffffffffffffffffffffffffffffffff16145b61099e576040517f08c379a0000000000000000000000000000000000000000000000000000000008152600401610995906110d5565b60405180910390fd5b6001600083815260200190815260200160002060050160009054906101000a900460ff1615610a02576040517f08c379a00000000000000000000000000000000000000000000000000000000081526004016109f9906110f5565b60405180910390fd5b3373ffffffffffffffffffffffffffffffffffffffff166108fc60016000858152602001908152602001600020600401549081150290604051600060405180830381858888f19350505050158015610a5e573d6000803e3d6000fd5b50600180600084815260200190815260200160002060050160006101000a81548160ff0219169083151502179055505050565b60006001600084815260200190815260200160002060070160008381526020019081526020016000206002018054905090506000805b82811015610b81573373ffffffffffffffffffffffffffffffffffffffff166001600087815260200190815260200160002060070160008681526020019081526020016000206002018281548110610b2257610b21611505565b5b9060005260206000200160009054906101000a900473ffffffffffffffffffffffffffffffffffffffff1673ffffffffffffffffffffffffffffffffffffffff161415610b6e57600191505b8080610b799061145e565b915050610ac7565b508015610bc3576040517f08c379a0000000000000000000000000000000000000000000000000000000008152600401610bba906110b5565b60405180910390fd5b600180600086815260200190815260200160002060070160008581526020019081526020016000206001016000828254610bfd919061131b565b92505081905550600160008581526020019081526020016000206007016000848152602001908152602001600020600201339080600181540180825580915050600190039060005260206000200160009091909190916101000a81548173ffffffffffffffffffffffffffffffffffffffff021916908373ffffffffffffffffffffffffffffffffffffffff16021790555050505050565b60005481565b60008054905090565b828054610cb0906113fb565b90600052602060002090601f016020900481019282610cd25760008555610d19565b82601f10610ceb57805160ff1916838001178555610d19565b82800160010185558215610d19579182015b82811115610d18578251825591602001919060010190610cfd565b5b509050610d269190610d2a565b5090565b5b80821115610d43576000816000905550600101610d2b565b5090565b6000610d5a610d558461125c565b611237565b905082815260208101848484011115610d7657610d75611568565b5b610d818482856113b9565b509392505050565b600082601f830112610d9e57610d9d611563565b5b8135610dae848260208601610d47565b91505092915050565b600081359050610dc68161162c565b92915050565b600060208284031215610de257610de1611572565b5b6000610df084828501610db7565b91505092915050565b60008060408385031215610e1057610e0f611572565b5b6000610e1e85828601610db7565b9250506020610e2f85828601610db7565b9150509250929050565b600080600060608486031215610e5257610e51611572565b5b6000610e6086828701610db7565b9350506020610e7186828701610db7565b925050604084013567ffffffffffffffff811115610e9257610e9161156d565b5b610e9e86828701610d89565b9150509250925092565b6000610eb48383610ed8565b60208301905092915050565b6000610ecc8383611077565b60208301905092915050565b610ee181611371565b82525050565b6000610ef2826112ad565b610efc81856112e8565b9350610f078361128d565b8060005b83811015610f38578151610f1f8882610ea8565b9750610f2a836112ce565b925050600181019050610f0b565b5085935050505092915050565b6000610f50826112b8565b610f5a81856112f9565b9350610f658361129d565b8060005b83811015610f96578151610f7d8882610ec0565b9750610f88836112db565b925050600181019050610f69565b5085935050505092915050565b610fac81611383565b82525050565b6000610fbd826112c3565b610fc7818561130a565b9350610fd78185602086016113c8565b610fe081611577565b840191505092915050565b6000610ff8600e8361130a565b915061100382611588565b602082019050919050565b600061101b600d8361130a565b9150611026826115b1565b602082019050919050565b600061103e600e8361130a565b9150611049826115da565b602082019050919050565b6000611061601a8361130a565b915061106c82611603565b602082019050919050565b611080816113af565b82525050565b61108f816113af565b82525050565b600060208201905081810360008301526110ae81610feb565b9050919050565b600060208201905081810360008301526110ce8161100e565b9050919050565b600060208201905081810360008301526110ee81611031565b9050919050565b6000602082019050818103600083015261110e81611054565b9050919050565b600060208201905061112a6000830184611086565b92915050565b60006040820190506111456000830185611086565b81810360208301526111578184610ee7565b90509392505050565b600060c0820190506111756000830189611086565b6111826020830188611086565b61118f6040830187611086565b81810360608301526111a18186610fb2565b905081810360808301526111b58185610f45565b90506111c460a0830184611086565b979650505050505050565b600060c0820190506111e46000830189611086565b6111f16020830188611086565b6111fe6040830187611086565b81810360608301526112108186610fb2565b905061121f6080830185611086565b61122c60a0830184610fa3565b979650505050505050565b6000611241611252565b905061124d828261142d565b919050565b6000604051905090565b600067ffffffffffffffff82111561127757611276611534565b5b61128082611577565b9050602081019050919050565b6000819050602082019050919050565b6000819050602082019050919050565b600081519050919050565b600081519050919050565b600081519050919050565b6000602082019050919050565b6000602082019050919050565b600082825260208201905092915050565b600082825260208201905092915050565b600082825260208201905092915050565b6000611326826113af565b9150611331836113af565b9250827fffffffffffffffffffffffffffffffffffffffffffffffffffffffffffffffff03821115611366576113656114a7565b5b828201905092915050565b600061137c8261138f565b9050919050565b60008115159050919050565b600073ffffffffffffffffffffffffffffffffffffffff82169050919050565b6000819050919050565b82818337600083830152505050565b60005b838110156113e65780820151818401526020810190506113cb565b838111156113f5576000848401525b50505050565b6000600282049050600182168061141357607f821691505b60208210811415611427576114266114d6565b5b50919050565b61143682611577565b810181811067ffffffffffffffff8211171561145557611454611534565b5b80604052505050565b6000611469826113af565b91507fffffffffffffffffffffffffffffffffffffffffffffffffffffffffffffffff82141561149c5761149b6114a7565b5b600182019050919050565b7f4e487b7100000000000000000000000000000000000000000000000000000000600052601160045260246000fd5b7f4e487b7100000000000000000000000000000000000000000000000000000000600052602260045260246000fd5b7f4e487b7100000000000000000000000000000000000000000000000000000000600052603260045260246000fd5b7f4e487b7100000000000000000000000000000000000000000000000000000000600052604160045260246000fd5b600080fd5b600080fd5b600080fd5b600080fd5b6000601f19601f8301169050919050565b7f416c7265616479206a6f696e6564000000000000000000000000000000000000600082015250565b7f416c726561647920766f74656400000000000000000000000000000000000000600082015250565b7f496e76616c69642077696e6e6572000000000000000000000000000000000000600082015250565b7f416c726561647920646973747269627574656420726577617264000000000000600082015250565b611635816113af565b811461164057600080fd5b5056fea26469706673582212202e12cdbe58324041ecbc357f577d3ce27ce3c4c1b15e6d465dd1a30b369f22e064736f6c63430008070033",
  "immutableReferences": {},
  "source": "pragma solidity ^0.8.0;\r\n\r\ncontract BeatBattle {\r\n\r\n    struct Battle {\r\n        uint id;\r\n        uint startTime;\r\n        uint endTime;\r\n        string metadataUri;\r\n\r\n        uint reward;\r\n        bool distributedReward;\r\n        \r\n        uint[] beatIds; // list of registered beats with beatId = tokenId\r\n        mapping (uint => VotingBeat) votingBeats; // voting result beatId => vote\r\n    }\r\n\r\n    struct VotingBeat {\r\n        address author;\r\n        uint count;\r\n        address[] voterAddresses;\r\n    }\r\n\r\n    uint public battleCount;\r\n    mapping (uint => Battle) public battles;\r\n\r\n    function getBattle(uint _battleId) public view returns (uint, uint, uint, string memory, uint[] memory, uint) {\r\n        return (battles[_battleId].id, \r\n                battles[_battleId].startTime, \r\n                battles[_battleId].endTime,\r\n                battles[_battleId].metadataUri,\r\n                battles[_battleId].beatIds,\r\n                battles[_battleId].reward);\r\n    }\r\n\r\n    function getBattleCount() public view returns (uint) {\r\n        return battleCount;\r\n    }\r\n\r\n    function getVotingBeatInfo(uint _battleId, uint _beatId) public view returns (\r\n        uint count,\r\n        address[] memory voterAddresses\r\n    ) \r\n    {\r\n        count = battles[_battleId].votingBeats[_beatId].count;\r\n        voterAddresses = battles[_battleId].votingBeats[_beatId].voterAddresses;\r\n    }\r\n\r\n\r\n    function createBattle(uint _startTime, uint _endTime, string memory _metadataUri) public payable  {\r\n        // // validate time\r\n        // require(_endTime > _startTime && _endTime >= block.timestamp,\"Invalid time\");\r\n\r\n        // Create battle\r\n        battleCount = battleCount + 1;\r\n        battles[battleCount].id = battleCount;\r\n        battles[battleCount].startTime = _startTime;\r\n        battles[battleCount].endTime = _endTime;\r\n        battles[battleCount].metadataUri = _metadataUri;\r\n        battles[battleCount].reward = msg.value;\r\n    }\r\n\r\n    function vote(uint _battleId, uint _beatId) public {\r\n        // // TODO: validate time\r\n        // require (block.timestamp >= battles[_battleId].startTime && block.timestamp <= battles[_battleId].endTime, \"Invalid time\");\r\n\r\n        // validate voting\r\n        uint voterCount = battles[_battleId].votingBeats[_beatId].voterAddresses.length;\r\n        bool isVoted = false;\r\n        for (uint voterIdx = 0; voterIdx < voterCount; voterIdx++) {\r\n            if (battles[_battleId].votingBeats[_beatId].voterAddresses[voterIdx] == msg.sender) {\r\n                isVoted = true;\r\n            }\r\n        }\r\n        require(!isVoted, \"Already voted\");\r\n\r\n        battles[_battleId].votingBeats[_beatId].count += 1;\r\n        battles[_battleId].votingBeats[_beatId].voterAddresses.push(msg.sender);\r\n    }\r\n\r\n    function join(uint _battleId, uint _beatId) public {\r\n        // // validate time\r\n        // require (block.timestamp >= battles[_battleId].startTime && block.timestamp <= battles[_battleId].endTime, \"Invalid time\");\r\n\r\n        // validate existing registered beat\r\n        bool existedBeatId = false;\r\n        for (uint i = 0; i < battles[_battleId].beatIds.length; i++) {\r\n            if (battles[_battleId].beatIds[i] == _beatId) {\r\n                existedBeatId = true;\r\n            }\r\n        }\r\n        require(!existedBeatId, \"Already joined\");\r\n  \r\n        // adding a beat to battle\r\n        battles[_battleId].beatIds.push(_beatId);\r\n        battles[_battleId].votingBeats[_beatId].count = 0;\r\n        battles[_battleId].votingBeats[_beatId].author = msg.sender;\r\n    }\r\n\r\n    function claimReward(uint _battleId) public payable {\r\n        // // validate time\r\n        // require (block.timestamp > battles[_battleId].endTime, \"The battle has not ended\");\r\n\r\n        // validate winner\r\n        uint winningBeatId = getWinningBeat(_battleId);\r\n        require(winningBeatId > 0 && _battleId > 0 && battles[_battleId].votingBeats[winningBeatId].author == msg.sender, \"Invalid winner\");\r\n\r\n        // check distributed or not\r\n        require(!battles[_battleId].distributedReward, \"Already distributed reward\");\r\n\r\n        // TODO: multiple winners\r\n\r\n        // distribute reward\r\n        payable(msg.sender).transfer(battles[_battleId].reward);\r\n        battles[_battleId].distributedReward = true;\r\n    }\r\n\r\n    function getWinningBeat(uint _battleId) public view returns (uint) {\r\n        // // validate time\r\n        // require (block.timestamp > battles[_battleId].endTime,  \"The battle has not ended\");\r\n\r\n        uint winningBeatId = 0;\r\n        uint winningVoteCount = 0;\r\n        for (uint i = 0; i < battles[_battleId].beatIds.length; i++) {\r\n            uint beatId = battles[_battleId].beatIds[i];\r\n            uint votingCount = battles[_battleId].votingBeats[beatId].count;\r\n            if (votingCount > winningVoteCount) {\r\n                winningVoteCount = votingCount;\r\n                winningBeatId = beatId;\r\n            }\r\n        }\r\n        return winningBeatId;\r\n    }\r\n}",
  "sourcePath": "D:\\Hackathon\\rarible\\feel-the-beat\\contracts\\BeatBattle.sol",
  "compiler": {
    "name": "solc",
    "version": "0.8.7+commit.e28d00a7.Emscripten.clang"
  },
  "schemaVersion": "3.4.2",
  "updatedAt": "2021-08-25T03:26:32.152Z",
  "networkType": "ethereum",
  "devdoc": {
    "kind": "dev",
    "methods": {},
    "version": 1
  },
  "userdoc": {
    "kind": "user",
    "methods": {},
    "version": 1
  }
}