{
  "contractName": "FeelTheBeat",
  "abi": [
    {
      "inputs": [],
      "stateMutability": "nonpayable",
      "type": "constructor"
    },
    {
      "anonymous": false,
      "inputs": [
        {
          "indexed": true,
          "internalType": "address",
          "name": "owner",
          "type": "address"
        },
        {
          "indexed": true,
          "internalType": "address",
          "name": "approved",
          "type": "address"
        },
        {
          "indexed": true,
          "internalType": "uint256",
          "name": "tokenId",
          "type": "uint256"
        }
      ],
      "name": "Approval",
      "type": "event"
    },
    {
      "anonymous": false,
      "inputs": [
        {
          "indexed": true,
          "internalType": "address",
          "name": "owner",
          "type": "address"
        },
        {
          "indexed": true,
          "internalType": "address",
          "name": "operator",
          "type": "address"
        },
        {
          "indexed": false,
          "internalType": "bool",
          "name": "approved",
          "type": "bool"
        }
      ],
      "name": "ApprovalForAll",
      "type": "event"
    },
    {
      "anonymous": false,
      "inputs": [
        {
          "indexed": true,
          "internalType": "address",
          "name": "previousOwner",
          "type": "address"
        },
        {
          "indexed": true,
          "internalType": "address",
          "name": "newOwner",
          "type": "address"
        }
      ],
      "name": "OwnershipTransferred",
      "type": "event"
    },
    {
      "anonymous": false,
      "inputs": [
        {
          "indexed": true,
          "internalType": "address",
          "name": "from",
          "type": "address"
        },
        {
          "indexed": true,
          "internalType": "address",
          "name": "to",
          "type": "address"
        },
        {
          "indexed": true,
          "internalType": "uint256",
          "name": "tokenId",
          "type": "uint256"
        }
      ],
      "name": "Transfer",
      "type": "event"
    },
    {
      "inputs": [
        {
          "internalType": "address",
          "name": "to",
          "type": "address"
        },
        {
          "internalType": "uint256",
          "name": "tokenId",
          "type": "uint256"
        }
      ],
      "name": "approve",
      "outputs": [],
      "stateMutability": "nonpayable",
      "type": "function"
    },
    {
      "inputs": [
        {
          "internalType": "address",
          "name": "owner",
          "type": "address"
        }
      ],
      "name": "balanceOf",
      "outputs": [
        {
          "internalType": "uint256",
          "name": "",
          "type": "uint256"
        }
      ],
      "stateMutability": "view",
      "type": "function",
      "constant": true
    },
    {
      "inputs": [
        {
          "internalType": "uint256",
          "name": "tokenId",
          "type": "uint256"
        }
      ],
      "name": "getApproved",
      "outputs": [
        {
          "internalType": "address",
          "name": "",
          "type": "address"
        }
      ],
      "stateMutability": "view",
      "type": "function",
      "constant": true
    },
    {
      "inputs": [
        {
          "internalType": "address",
          "name": "owner",
          "type": "address"
        },
        {
          "internalType": "address",
          "name": "operator",
          "type": "address"
        }
      ],
      "name": "isApprovedForAll",
      "outputs": [
        {
          "internalType": "bool",
          "name": "",
          "type": "bool"
        }
      ],
      "stateMutability": "view",
      "type": "function",
      "constant": true
    },
    {
      "inputs": [],
      "name": "name",
      "outputs": [
        {
          "internalType": "string",
          "name": "",
          "type": "string"
        }
      ],
      "stateMutability": "view",
      "type": "function",
      "constant": true
    },
    {
      "inputs": [],
      "name": "owner",
      "outputs": [
        {
          "internalType": "address",
          "name": "",
          "type": "address"
        }
      ],
      "stateMutability": "view",
      "type": "function",
      "constant": true
    },
    {
      "inputs": [
        {
          "internalType": "uint256",
          "name": "tokenId",
          "type": "uint256"
        }
      ],
      "name": "ownerOf",
      "outputs": [
        {
          "internalType": "address",
          "name": "",
          "type": "address"
        }
      ],
      "stateMutability": "view",
      "type": "function",
      "constant": true
    },
    {
      "inputs": [],
      "name": "renounceOwnership",
      "outputs": [],
      "stateMutability": "nonpayable",
      "type": "function"
    },
    {
      "inputs": [
        {
          "internalType": "address",
          "name": "from",
          "type": "address"
        },
        {
          "internalType": "address",
          "name": "to",
          "type": "address"
        },
        {
          "internalType": "uint256",
          "name": "tokenId",
          "type": "uint256"
        }
      ],
      "name": "safeTransferFrom",
      "outputs": [],
      "stateMutability": "nonpayable",
      "type": "function"
    },
    {
      "inputs": [
        {
          "internalType": "address",
          "name": "from",
          "type": "address"
        },
        {
          "internalType": "address",
          "name": "to",
          "type": "address"
        },
        {
          "internalType": "uint256",
          "name": "tokenId",
          "type": "uint256"
        },
        {
          "internalType": "bytes",
          "name": "_data",
          "type": "bytes"
        }
      ],
      "name": "safeTransferFrom",
      "outputs": [],
      "stateMutability": "nonpayable",
      "type": "function"
    },
    {
      "inputs": [
        {
          "internalType": "address",
          "name": "operator",
          "type": "address"
        },
        {
          "internalType": "bool",
          "name": "approved",
          "type": "bool"
        }
      ],
      "name": "setApprovalForAll",
      "outputs": [],
      "stateMutability": "nonpayable",
      "type": "function"
    },
    {
      "inputs": [
        {
          "internalType": "bytes4",
          "name": "interfaceId",
          "type": "bytes4"
        }
      ],
      "name": "supportsInterface",
      "outputs": [
        {
          "internalType": "bool",
          "name": "",
          "type": "bool"
        }
      ],
      "stateMutability": "view",
      "type": "function",
      "constant": true
    },
    {
      "inputs": [],
      "name": "symbol",
      "outputs": [
        {
          "internalType": "string",
          "name": "",
          "type": "string"
        }
      ],
      "stateMutability": "view",
      "type": "function",
      "constant": true
    },
    {
      "inputs": [
        {
          "internalType": "address",
          "name": "from",
          "type": "address"
        },
        {
          "internalType": "address",
          "name": "to",
          "type": "address"
        },
        {
          "internalType": "uint256",
          "name": "tokenId",
          "type": "uint256"
        }
      ],
      "name": "transferFrom",
      "outputs": [],
      "stateMutability": "nonpayable",
      "type": "function"
    },
    {
      "inputs": [
        {
          "internalType": "address",
          "name": "newOwner",
          "type": "address"
        }
      ],
      "name": "transferOwnership",
      "outputs": [],
      "stateMutability": "nonpayable",
      "type": "function"
    },
    {
      "inputs": [
        {
          "internalType": "uint256",
          "name": "_tokenId",
          "type": "uint256"
        }
      ],
      "name": "tokenURI",
      "outputs": [
        {
          "internalType": "string",
          "name": "",
          "type": "string"
        }
      ],
      "stateMutability": "view",
      "type": "function",
      "constant": true
    },
    {
      "inputs": [
        {
          "internalType": "string",
          "name": "tokenURI_",
          "type": "string"
        }
      ],
      "name": "createBeat",
      "outputs": [
        {
          "internalType": "uint256",
          "name": "",
          "type": "uint256"
        }
      ],
      "stateMutability": "nonpayable",
      "type": "function"
    },
    {
      "inputs": [
        {
          "internalType": "address",
          "name": "_owner",
          "type": "address"
        }
      ],
      "name": "tokensOfOwner",
      "outputs": [
        {
          "internalType": "uint256[]",
          "name": "ownerTokens",
          "type": "uint256[]"
        }
      ],
      "stateMutability": "view",
      "type": "function",
      "constant": true
    }
  ],
  "bytecode": "0x60806040523480156200001157600080fd5b506040518060400160405280600b81526020017f4665656c546865426561740000000000000000000000000000000000000000008152506040518060400160405280600481526020017f4245415400000000000000000000000000000000000000000000000000000000815250816000908051906020019062000096929190620001a6565b508060019080519060200190620000af929190620001a6565b505050620000d2620000c6620000d860201b60201c565b620000e060201b60201c565b620002bb565b600033905090565b6000600660009054906101000a900473ffffffffffffffffffffffffffffffffffffffff16905081600660006101000a81548173ffffffffffffffffffffffffffffffffffffffff021916908373ffffffffffffffffffffffffffffffffffffffff1602179055508173ffffffffffffffffffffffffffffffffffffffff168173ffffffffffffffffffffffffffffffffffffffff167f8be0079c531659141344cd1fd0a4f28419497f9722a3daafe3b4186f6b6457e060405160405180910390a35050565b828054620001b49062000256565b90600052602060002090601f016020900481019282620001d8576000855562000224565b82601f10620001f357805160ff191683800117855562000224565b8280016001018555821562000224579182015b828111156200022357825182559160200191906001019062000206565b5b50905062000233919062000237565b5090565b5b808211156200025257600081600090555060010162000238565b5090565b600060028204905060018216806200026f57607f821691505b602082108114156200028657620002856200028c565b5b50919050565b7f4e487b7100000000000000000000000000000000000000000000000000000000600052602260045260246000fd5b612c1480620002cb6000396000f3fe608060405234801561001057600080fd5b50600436106101165760003560e01c80638462151c116100a2578063b86b206a11610071578063b86b206a146102df578063b88d4fde1461030f578063c87b56dd1461032b578063e985e9c51461035b578063f2fde38b1461038b57610116565b80638462151c146102575780638da5cb5b1461028757806395d89b41146102a5578063a22cb465146102c357610116565b806323b872dd116100e957806323b872dd146101b557806342842e0e146101d15780636352211e146101ed57806370a082311461021d578063715018a61461024d57610116565b806301ffc9a71461011b57806306fdde031461014b578063081812fc14610169578063095ea7b314610199575b600080fd5b61013560048036038101906101309190611cf2565b6103a7565b604051610142919061217c565b60405180910390f35b610153610489565b6040516101609190612197565b60405180910390f35b610183600480360381019061017e9190611d95565b61051b565b60405161019091906120f3565b60405180910390f35b6101b360048036038101906101ae9190611cb2565b6105a0565b005b6101cf60048036038101906101ca9190611b9c565b6106b8565b005b6101eb60048036038101906101e69190611b9c565b610718565b005b61020760048036038101906102029190611d95565b610738565b60405161021491906120f3565b60405180910390f35b61023760048036038101906102329190611b2f565b6107ea565b6040516102449190612399565b60405180910390f35b6102556108a2565b005b610271600480360381019061026c9190611b2f565b61092a565b60405161027e919061215a565b60405180910390f35b61028f610a8a565b60405161029c91906120f3565b60405180910390f35b6102ad610ab4565b6040516102ba9190612197565b60405180910390f35b6102dd60048036038101906102d89190611c72565b610b46565b005b6102f960048036038101906102f49190611d4c565b610cc7565b6040516103069190612399565b60405180910390f35b61032960048036038101906103249190611bef565b610d1c565b005b61034560048036038101906103409190611d95565b610d7e565b6040516103529190612197565b60405180910390f35b61037560048036038101906103709190611b5c565b610e23565b604051610382919061217c565b60405180910390f35b6103a560048036038101906103a09190611b2f565b610eb7565b005b60007f80ac58cd000000000000000000000000000000000000000000000000000000007bffffffffffffffffffffffffffffffffffffffffffffffffffffffff1916827bffffffffffffffffffffffffffffffffffffffffffffffffffffffff1916148061047257507f5b5e139f000000000000000000000000000000000000000000000000000000007bffffffffffffffffffffffffffffffffffffffffffffffffffffffff1916827bffffffffffffffffffffffffffffffffffffffffffffffffffffffff1916145b80610482575061048182610faf565b5b9050919050565b606060008054610498906125ec565b80601f01602080910402602001604051908101604052809291908181526020018280546104c4906125ec565b80156105115780601f106104e657610100808354040283529160200191610511565b820191906000526020600020905b8154815290600101906020018083116104f457829003601f168201915b5050505050905090565b600061052682611019565b610565576040517f08c379a000000000000000000000000000000000000000000000000000000000815260040161055c906122f9565b60405180910390fd5b6004600083815260200190815260200160002060009054906101000a900473ffffffffffffffffffffffffffffffffffffffff169050919050565b60006105ab82610738565b90508073ffffffffffffffffffffffffffffffffffffffff168373ffffffffffffffffffffffffffffffffffffffff16141561061c576040517f08c379a000000000000000000000000000000000000000000000000000000000815260040161061390612359565b60405180910390fd5b8073ffffffffffffffffffffffffffffffffffffffff1661063b611085565b73ffffffffffffffffffffffffffffffffffffffff16148061066a575061066981610664611085565b610e23565b5b6106a9576040517f08c379a00000000000000000000000000000000000000000000000000000000081526004016106a090612279565b60405180910390fd5b6106b3838361108d565b505050565b6106c96106c3611085565b82611146565b610708576040517f08c379a00000000000000000000000000000000000000000000000000000000081526004016106ff90612379565b60405180910390fd5b610713838383611224565b505050565b61073383838360405180602001604052806000815250610d1c565b505050565b6000806002600084815260200190815260200160002060009054906101000a900473ffffffffffffffffffffffffffffffffffffffff169050600073ffffffffffffffffffffffffffffffffffffffff168173ffffffffffffffffffffffffffffffffffffffff1614156107e1576040517f08c379a00000000000000000000000000000000000000000000000000000000081526004016107d8906122b9565b60405180910390fd5b80915050919050565b60008073ffffffffffffffffffffffffffffffffffffffff168273ffffffffffffffffffffffffffffffffffffffff16141561085b576040517f08c379a000000000000000000000000000000000000000000000000000000000815260040161085290612299565b60405180910390fd5b600360008373ffffffffffffffffffffffffffffffffffffffff1673ffffffffffffffffffffffffffffffffffffffff168152602001908152602001600020549050919050565b6108aa611085565b73ffffffffffffffffffffffffffffffffffffffff166108c8610a8a565b73ffffffffffffffffffffffffffffffffffffffff161461091e576040517f08c379a000000000000000000000000000000000000000000000000000000000815260040161091590612319565b60405180910390fd5b6109286000611480565b565b60606000610937836107ea565b9050600081141561099457600067ffffffffffffffff81111561095d5761095c612725565b5b60405190808252806020026020018201604052801561098b5781602001602082028036833780820191505090505b50915050610a85565b60008167ffffffffffffffff8111156109b0576109af612725565b5b6040519080825280602002602001820160405280156109de5781602001602082028036833780820191505090505b50905060006109ed6007611546565b9050600080600190505b828111610a7c578673ffffffffffffffffffffffffffffffffffffffff16610a1e82610738565b73ffffffffffffffffffffffffffffffffffffffff161415610a695780848381518110610a4e57610a4d6126f6565b5b6020026020010181815250508180610a659061264f565b9250505b8080610a749061264f565b9150506109f7565b83955050505050505b919050565b6000600660009054906101000a900473ffffffffffffffffffffffffffffffffffffffff16905090565b606060018054610ac3906125ec565b80601f0160208091040260200160405190810160405280929190818152602001828054610aef906125ec565b8015610b3c5780601f10610b1157610100808354040283529160200191610b3c565b820191906000526020600020905b815481529060010190602001808311610b1f57829003601f168201915b5050505050905090565b610b4e611085565b73ffffffffffffffffffffffffffffffffffffffff168273ffffffffffffffffffffffffffffffffffffffff161415610bbc576040517f08c379a0000000000000000000000000000000000000000000000000000000008152600401610bb390612239565b60405180910390fd5b8060056000610bc9611085565b73ffffffffffffffffffffffffffffffffffffffff1673ffffffffffffffffffffffffffffffffffffffff16815260200190815260200160002060008473ffffffffffffffffffffffffffffffffffffffff1673ffffffffffffffffffffffffffffffffffffffff16815260200190815260200160002060006101000a81548160ff0219169083151502179055508173ffffffffffffffffffffffffffffffffffffffff16610c76611085565b73ffffffffffffffffffffffffffffffffffffffff167f17307eab39ab6107e8899845ad3d59bd9653f200f220920489ca2b5937696c3183604051610cbb919061217c565b60405180910390a35050565b6000610cd36007611554565b6000610cdf6007611546565b9050610ceb338261156a565b82600860008381526020019081526020016000209080519060200190610d12929190611943565b5080915050919050565b610d2d610d27611085565b83611146565b610d6c576040517f08c379a0000000000000000000000000000000000000000000000000000000008152600401610d6390612379565b60405180910390fd5b610d7884848484611738565b50505050565b6060600860008381526020019081526020016000208054610d9e906125ec565b80601f0160208091040260200160405190810160405280929190818152602001828054610dca906125ec565b8015610e175780601f10610dec57610100808354040283529160200191610e17565b820191906000526020600020905b815481529060010190602001808311610dfa57829003601f168201915b50505050509050919050565b6000600560008473ffffffffffffffffffffffffffffffffffffffff1673ffffffffffffffffffffffffffffffffffffffff16815260200190815260200160002060008373ffffffffffffffffffffffffffffffffffffffff1673ffffffffffffffffffffffffffffffffffffffff16815260200190815260200160002060009054906101000a900460ff16905092915050565b610ebf611085565b73ffffffffffffffffffffffffffffffffffffffff16610edd610a8a565b73ffffffffffffffffffffffffffffffffffffffff1614610f33576040517f08c379a0000000000000000000000000000000000000000000000000000000008152600401610f2a90612319565b60405180910390fd5b600073ffffffffffffffffffffffffffffffffffffffff168173ffffffffffffffffffffffffffffffffffffffff161415610fa3576040517f08c379a0000000000000000000000000000000000000000000000000000000008152600401610f9a906121d9565b60405180910390fd5b610fac81611480565b50565b60007f01ffc9a7000000000000000000000000000000000000000000000000000000007bffffffffffffffffffffffffffffffffffffffffffffffffffffffff1916827bffffffffffffffffffffffffffffffffffffffffffffffffffffffff1916149050919050565b60008073ffffffffffffffffffffffffffffffffffffffff166002600084815260200190815260200160002060009054906101000a900473ffffffffffffffffffffffffffffffffffffffff1673ffffffffffffffffffffffffffffffffffffffff1614159050919050565b600033905090565b816004600083815260200190815260200160002060006101000a81548173ffffffffffffffffffffffffffffffffffffffff021916908373ffffffffffffffffffffffffffffffffffffffff160217905550808273ffffffffffffffffffffffffffffffffffffffff1661110083610738565b73ffffffffffffffffffffffffffffffffffffffff167f8c5be1e5ebec7d5bd14f71427d1e84f3dd0314c0f7b2291e5b200ac8c7c3b92560405160405180910390a45050565b600061115182611019565b611190576040517f08c379a000000000000000000000000000000000000000000000000000000000815260040161118790612259565b60405180910390fd5b600061119b83610738565b90508073ffffffffffffffffffffffffffffffffffffffff168473ffffffffffffffffffffffffffffffffffffffff16148061120a57508373ffffffffffffffffffffffffffffffffffffffff166111f28461051b565b73ffffffffffffffffffffffffffffffffffffffff16145b8061121b575061121a8185610e23565b5b91505092915050565b8273ffffffffffffffffffffffffffffffffffffffff1661124482610738565b73ffffffffffffffffffffffffffffffffffffffff161461129a576040517f08c379a000000000000000000000000000000000000000000000000000000000815260040161129190612339565b60405180910390fd5b600073ffffffffffffffffffffffffffffffffffffffff168273ffffffffffffffffffffffffffffffffffffffff16141561130a576040517f08c379a000000000000000000000000000000000000000000000000000000000815260040161130190612219565b60405180910390fd5b611315838383611794565b61132060008261108d565b6001600360008573ffffffffffffffffffffffffffffffffffffffff1673ffffffffffffffffffffffffffffffffffffffff16815260200190815260200160002060008282546113709190612502565b925050819055506001600360008473ffffffffffffffffffffffffffffffffffffffff1673ffffffffffffffffffffffffffffffffffffffff16815260200190815260200160002060008282546113c791906124ac565b92505081905550816002600083815260200190815260200160002060006101000a81548173ffffffffffffffffffffffffffffffffffffffff021916908373ffffffffffffffffffffffffffffffffffffffff160217905550808273ffffffffffffffffffffffffffffffffffffffff168473ffffffffffffffffffffffffffffffffffffffff167fddf252ad1be2c89b69c2b068fc378daa952ba7f163c4a11628f55a4df523b3ef60405160405180910390a4505050565b6000600660009054906101000a900473ffffffffffffffffffffffffffffffffffffffff16905081600660006101000a81548173ffffffffffffffffffffffffffffffffffffffff021916908373ffffffffffffffffffffffffffffffffffffffff1602179055508173ffffffffffffffffffffffffffffffffffffffff168173ffffffffffffffffffffffffffffffffffffffff167f8be0079c531659141344cd1fd0a4f28419497f9722a3daafe3b4186f6b6457e060405160405180910390a35050565b600081600001549050919050565b6001816000016000828254019250508190555050565b600073ffffffffffffffffffffffffffffffffffffffff168273ffffffffffffffffffffffffffffffffffffffff1614156115da576040517f08c379a00000000000000000000000000000000000000000000000000000000081526004016115d1906122d9565b60405180910390fd5b6115e381611019565b15611623576040517f08c379a000000000000000000000000000000000000000000000000000000000815260040161161a906121f9565b60405180910390fd5b61162f60008383611794565b6001600360008473ffffffffffffffffffffffffffffffffffffffff1673ffffffffffffffffffffffffffffffffffffffff168152602001908152602001600020600082825461167f91906124ac565b92505081905550816002600083815260200190815260200160002060006101000a81548173ffffffffffffffffffffffffffffffffffffffff021916908373ffffffffffffffffffffffffffffffffffffffff160217905550808273ffffffffffffffffffffffffffffffffffffffff16600073ffffffffffffffffffffffffffffffffffffffff167fddf252ad1be2c89b69c2b068fc378daa952ba7f163c4a11628f55a4df523b3ef60405160405180910390a45050565b611743848484611224565b61174f84848484611799565b61178e576040517f08c379a0000000000000000000000000000000000000000000000000000000008152600401611785906121b9565b60405180910390fd5b50505050565b505050565b60006117ba8473ffffffffffffffffffffffffffffffffffffffff16611930565b15611923578373ffffffffffffffffffffffffffffffffffffffff1663150b7a026117e3611085565b8786866040518563ffffffff1660e01b8152600401611805949392919061210e565b602060405180830381600087803b15801561181f57600080fd5b505af192505050801561185057506040513d601f19601f8201168201806040525081019061184d9190611d1f565b60015b6118d3573d8060008114611880576040519150601f19603f3d011682016040523d82523d6000602084013e611885565b606091505b506000815114156118cb576040517f08c379a00000000000000000000000000000000000000000000000000000000081526004016118c2906121b9565b60405180910390fd5b805181602001fd5b63150b7a0260e01b7bffffffffffffffffffffffffffffffffffffffffffffffffffffffff1916817bffffffffffffffffffffffffffffffffffffffffffffffffffffffff191614915050611928565b600190505b949350505050565b600080823b905060008111915050919050565b82805461194f906125ec565b90600052602060002090601f01602090048101928261197157600085556119b8565b82601f1061198a57805160ff19168380011785556119b8565b828001600101855582156119b8579182015b828111156119b757825182559160200191906001019061199c565b5b5090506119c591906119c9565b5090565b5b808211156119e25760008160009055506001016119ca565b5090565b60006119f96119f4846123d9565b6123b4565b905082815260208101848484011115611a1557611a14612759565b5b611a208482856125aa565b509392505050565b6000611a3b611a368461240a565b6123b4565b905082815260208101848484011115611a5757611a56612759565b5b611a628482856125aa565b509392505050565b600081359050611a7981612b82565b92915050565b600081359050611a8e81612b99565b92915050565b600081359050611aa381612bb0565b92915050565b600081519050611ab881612bb0565b92915050565b600082601f830112611ad357611ad2612754565b5b8135611ae38482602086016119e6565b91505092915050565b600082601f830112611b0157611b00612754565b5b8135611b11848260208601611a28565b91505092915050565b600081359050611b2981612bc7565b92915050565b600060208284031215611b4557611b44612763565b5b6000611b5384828501611a6a565b91505092915050565b60008060408385031215611b7357611b72612763565b5b6000611b8185828601611a6a565b9250506020611b9285828601611a6a565b9150509250929050565b600080600060608486031215611bb557611bb4612763565b5b6000611bc386828701611a6a565b9350506020611bd486828701611a6a565b9250506040611be586828701611b1a565b9150509250925092565b60008060008060808587031215611c0957611c08612763565b5b6000611c1787828801611a6a565b9450506020611c2887828801611a6a565b9350506040611c3987828801611b1a565b925050606085013567ffffffffffffffff811115611c5a57611c5961275e565b5b611c6687828801611abe565b91505092959194509250565b60008060408385031215611c8957611c88612763565b5b6000611c9785828601611a6a565b9250506020611ca885828601611a7f565b9150509250929050565b60008060408385031215611cc957611cc8612763565b5b6000611cd785828601611a6a565b9250506020611ce885828601611b1a565b9150509250929050565b600060208284031215611d0857611d07612763565b5b6000611d1684828501611a94565b91505092915050565b600060208284031215611d3557611d34612763565b5b6000611d4384828501611aa9565b91505092915050565b600060208284031215611d6257611d61612763565b5b600082013567ffffffffffffffff811115611d8057611d7f61275e565b5b611d8c84828501611aec565b91505092915050565b600060208284031215611dab57611daa612763565b5b6000611db984828501611b1a565b91505092915050565b6000611dce83836120d5565b60208301905092915050565b611de381612536565b82525050565b6000611df48261244b565b611dfe8185612479565b9350611e098361243b565b8060005b83811015611e3a578151611e218882611dc2565b9750611e2c8361246c565b925050600181019050611e0d565b5085935050505092915050565b611e5081612548565b82525050565b6000611e6182612456565b611e6b818561248a565b9350611e7b8185602086016125b9565b611e8481612768565b840191505092915050565b6000611e9a82612461565b611ea4818561249b565b9350611eb48185602086016125b9565b611ebd81612768565b840191505092915050565b6000611ed560328361249b565b9150611ee082612779565b604082019050919050565b6000611ef860268361249b565b9150611f03826127c8565b604082019050919050565b6000611f1b601c8361249b565b9150611f2682612817565b602082019050919050565b6000611f3e60248361249b565b9150611f4982612840565b604082019050919050565b6000611f6160198361249b565b9150611f6c8261288f565b602082019050919050565b6000611f84602c8361249b565b9150611f8f826128b8565b604082019050919050565b6000611fa760388361249b565b9150611fb282612907565b604082019050919050565b6000611fca602a8361249b565b9150611fd582612956565b604082019050919050565b6000611fed60298361249b565b9150611ff8826129a5565b604082019050919050565b600061201060208361249b565b915061201b826129f4565b602082019050919050565b6000612033602c8361249b565b915061203e82612a1d565b604082019050919050565b600061205660208361249b565b915061206182612a6c565b602082019050919050565b600061207960298361249b565b915061208482612a95565b604082019050919050565b600061209c60218361249b565b91506120a782612ae4565b604082019050919050565b60006120bf60318361249b565b91506120ca82612b33565b604082019050919050565b6120de816125a0565b82525050565b6120ed816125a0565b82525050565b60006020820190506121086000830184611dda565b92915050565b60006080820190506121236000830187611dda565b6121306020830186611dda565b61213d60408301856120e4565b818103606083015261214f8184611e56565b905095945050505050565b600060208201905081810360008301526121748184611de9565b905092915050565b60006020820190506121916000830184611e47565b92915050565b600060208201905081810360008301526121b18184611e8f565b905092915050565b600060208201905081810360008301526121d281611ec8565b9050919050565b600060208201905081810360008301526121f281611eeb565b9050919050565b6000602082019050818103600083015261221281611f0e565b9050919050565b6000602082019050818103600083015261223281611f31565b9050919050565b6000602082019050818103600083015261225281611f54565b9050919050565b6000602082019050818103600083015261227281611f77565b9050919050565b6000602082019050818103600083015261229281611f9a565b9050919050565b600060208201905081810360008301526122b281611fbd565b9050919050565b600060208201905081810360008301526122d281611fe0565b9050919050565b600060208201905081810360008301526122f281612003565b9050919050565b6000602082019050818103600083015261231281612026565b9050919050565b6000602082019050818103600083015261233281612049565b9050919050565b600060208201905081810360008301526123528161206c565b9050919050565b600060208201905081810360008301526123728161208f565b9050919050565b60006020820190508181036000830152612392816120b2565b9050919050565b60006020820190506123ae60008301846120e4565b92915050565b60006123be6123cf565b90506123ca828261261e565b919050565b6000604051905090565b600067ffffffffffffffff8211156123f4576123f3612725565b5b6123fd82612768565b9050602081019050919050565b600067ffffffffffffffff82111561242557612424612725565b5b61242e82612768565b9050602081019050919050565b6000819050602082019050919050565b600081519050919050565b600081519050919050565b600081519050919050565b6000602082019050919050565b600082825260208201905092915050565b600082825260208201905092915050565b600082825260208201905092915050565b60006124b7826125a0565b91506124c2836125a0565b9250827fffffffffffffffffffffffffffffffffffffffffffffffffffffffffffffffff038211156124f7576124f6612698565b5b828201905092915050565b600061250d826125a0565b9150612518836125a0565b92508282101561252b5761252a612698565b5b828203905092915050565b600061254182612580565b9050919050565b60008115159050919050565b60007fffffffff0000000000000000000000000000000000000000000000000000000082169050919050565b600073ffffffffffffffffffffffffffffffffffffffff82169050919050565b6000819050919050565b82818337600083830152505050565b60005b838110156125d75780820151818401526020810190506125bc565b838111156125e6576000848401525b50505050565b6000600282049050600182168061260457607f821691505b60208210811415612618576126176126c7565b5b50919050565b61262782612768565b810181811067ffffffffffffffff8211171561264657612645612725565b5b80604052505050565b600061265a826125a0565b91507fffffffffffffffffffffffffffffffffffffffffffffffffffffffffffffffff82141561268d5761268c612698565b5b600182019050919050565b7f4e487b7100000000000000000000000000000000000000000000000000000000600052601160045260246000fd5b7f4e487b7100000000000000000000000000000000000000000000000000000000600052602260045260246000fd5b7f4e487b7100000000000000000000000000000000000000000000000000000000600052603260045260246000fd5b7f4e487b7100000000000000000000000000000000000000000000000000000000600052604160045260246000fd5b600080fd5b600080fd5b600080fd5b600080fd5b6000601f19601f8301169050919050565b7f4552433732313a207472616e7366657220746f206e6f6e20455243373231526560008201527f63656976657220696d706c656d656e7465720000000000000000000000000000602082015250565b7f4f776e61626c653a206e6577206f776e657220697320746865207a65726f206160008201527f6464726573730000000000000000000000000000000000000000000000000000602082015250565b7f4552433732313a20746f6b656e20616c7265616479206d696e74656400000000600082015250565b7f4552433732313a207472616e7366657220746f20746865207a65726f2061646460008201527f7265737300000000000000000000000000000000000000000000000000000000602082015250565b7f4552433732313a20617070726f766520746f2063616c6c657200000000000000600082015250565b7f4552433732313a206f70657261746f7220717565727920666f72206e6f6e657860008201527f697374656e7420746f6b656e0000000000000000000000000000000000000000602082015250565b7f4552433732313a20617070726f76652063616c6c6572206973206e6f74206f7760008201527f6e6572206e6f7220617070726f76656420666f7220616c6c0000000000000000602082015250565b7f4552433732313a2062616c616e636520717565727920666f7220746865207a6560008201527f726f206164647265737300000000000000000000000000000000000000000000602082015250565b7f4552433732313a206f776e657220717565727920666f72206e6f6e657869737460008201527f656e7420746f6b656e0000000000000000000000000000000000000000000000602082015250565b7f4552433732313a206d696e7420746f20746865207a65726f2061646472657373600082015250565b7f4552433732313a20617070726f76656420717565727920666f72206e6f6e657860008201527f697374656e7420746f6b656e0000000000000000000000000000000000000000602082015250565b7f4f776e61626c653a2063616c6c6572206973206e6f7420746865206f776e6572600082015250565b7f4552433732313a207472616e73666572206f6620746f6b656e2074686174206960008201527f73206e6f74206f776e0000000000000000000000000000000000000000000000602082015250565b7f4552433732313a20617070726f76616c20746f2063757272656e74206f776e6560008201527f7200000000000000000000000000000000000000000000000000000000000000602082015250565b7f4552433732313a207472616e736665722063616c6c6572206973206e6f74206f60008201527f776e6572206e6f7220617070726f766564000000000000000000000000000000602082015250565b612b8b81612536565b8114612b9657600080fd5b50565b612ba281612548565b8114612bad57600080fd5b50565b612bb981612554565b8114612bc457600080fd5b50565b612bd0816125a0565b8114612bdb57600080fd5b5056fea2646970667358221220732683e460c3ea92eb8b64a47c594029e70ea1a70e7b20d1ef34288577a58abf64736f6c63430008070033",
  "immutableReferences": {},
  "source": "pragma solidity ^0.8.0;\r\n\r\nimport \"../node_modules/openzeppelin-solidity/contracts/token/ERC721/ERC721.sol\";\r\nimport \"../node_modules/openzeppelin-solidity/contracts/access/Ownable.sol\";\r\nimport \"../node_modules/openzeppelin-solidity/contracts/utils/Counters.sol\";\r\n\r\ncontract FeelTheBeat is ERC721, Ownable {\r\n    using Counters for Counters.Counter;\r\n    Counters.Counter private _tokenIds;\r\n\r\n    constructor() ERC721(\"FeelTheBeat\", \"BEAT\") {}\r\n\r\n    mapping (uint256 => string) private _tokenURIs;\r\n\r\n    function tokenURI(uint256 _tokenId) public view virtual override\r\n        returns (string memory)\r\n    {\r\n        return _tokenURIs[_tokenId];\r\n    }\r\n\r\n    function createBeat(string memory tokenURI_) public returns (uint256) {\r\n        _tokenIds.increment();\r\n\r\n        uint256 newItemId = _tokenIds.current();\r\n        _mint(msg.sender, newItemId);\r\n        _tokenURIs[newItemId] = tokenURI_;\r\n        //_setTokenURI(newItemId, tokenURI);\r\n\r\n        return newItemId;\r\n    }\r\n\r\n    function tokensOfOwner(address _owner) external view returns(uint256[] memory ownerTokens) {\r\n        uint256 tokenCount = balanceOf(_owner);\r\n\r\n        if (tokenCount == 0) {\r\n            return new uint256[](0);\r\n        } else {\r\n            uint256[] memory result = new uint256[](tokenCount);\r\n            uint256 totalTokens = _tokenIds.current();\r\n            uint256 resultIndex = 0;\r\n\r\n\r\n            uint256 tokenId;\r\n\r\n            for (tokenId = 1; tokenId <= totalTokens; tokenId++) {\r\n                if (ownerOf(tokenId) == _owner) {\r\n                    result[resultIndex] = tokenId;\r\n                    resultIndex++;\r\n                }\r\n            }\r\n\r\n            return result;\r\n        }\r\n    }\r\n}\r\n",
  "sourcePath": "D:\\Hackathon\\rarible\\feel-the-beat\\contracts\\FeelTheBeat.sol",
  "compiler": {
    "name": "solc",
    "version": "0.8.7+commit.e28d00a7.Emscripten.clang"
  },
  "schemaVersion": "3.4.2",
  "updatedAt": "2021-08-25T03:26:32.142Z",
  "networkType": "ethereum",
  "devdoc": {
    "kind": "dev",
    "methods": {
      "approve(address,uint256)": {
        "details": "See {IERC721-approve}."
      },
      "balanceOf(address)": {
        "details": "See {IERC721-balanceOf}."
      },
      "getApproved(uint256)": {
        "details": "See {IERC721-getApproved}."
      },
      "isApprovedForAll(address,address)": {
        "details": "See {IERC721-isApprovedForAll}."
      },
      "name()": {
        "details": "See {IERC721Metadata-name}."
      },
      "owner()": {
        "details": "Returns the address of the current owner."
      },
      "ownerOf(uint256)": {
        "details": "See {IERC721-ownerOf}."
      },
      "renounceOwnership()": {
        "details": "Leaves the contract without owner. It will not be possible to call `onlyOwner` functions anymore. Can only be called by the current owner. NOTE: Renouncing ownership will leave the contract without an owner, thereby removing any functionality that is only available to the owner."
      },
      "safeTransferFrom(address,address,uint256)": {
        "details": "See {IERC721-safeTransferFrom}."
      },
      "safeTransferFrom(address,address,uint256,bytes)": {
        "details": "See {IERC721-safeTransferFrom}."
      },
      "setApprovalForAll(address,bool)": {
        "details": "See {IERC721-setApprovalForAll}."
      },
      "supportsInterface(bytes4)": {
        "details": "See {IERC165-supportsInterface}."
      },
      "symbol()": {
        "details": "See {IERC721Metadata-symbol}."
      },
      "transferFrom(address,address,uint256)": {
        "details": "See {IERC721-transferFrom}."
      },
      "transferOwnership(address)": {
        "details": "Transfers ownership of the contract to a new account (`newOwner`). Can only be called by the current owner."
      }
    },
    "version": 1
  },
  "userdoc": {
    "kind": "user",
    "methods": {},
    "version": 1
  }
}